{
  "_format": "hh-sol-artifact-1",
  "contractName": "AgriVerify",
  "sourceName": "contracts/farmers.sol",
  "abi": [
    {
      "inputs": [
        {
          "internalType": "address",
          "name": "_address",
          "type": "address"
        },
        {
          "internalType": "uint256",
          "name": "_cropId",
          "type": "uint256"
        },
        {
          "internalType": "uint256",
          "name": "_cropPrice",
          "type": "uint256"
        },
        {
          "internalType": "string",
          "name": "_cropname",
          "type": "string"
        },
        {
          "internalType": "string",
          "name": "_location",
          "type": "string"
        }
      ],
      "name": "addCrop",
      "outputs": [],
      "stateMutability": "nonpayable",
      "type": "function"
    },
    {
      "inputs": [
        {
          "internalType": "uint256",
          "name": "_id",
          "type": "uint256"
        },
        {
          "internalType": "string",
          "name": "_farmerName",
          "type": "string"
        }
      ],
      "name": "addFarmer",
      "outputs": [],
      "stateMutability": "nonpayable",
      "type": "function"
    },
    {
      "inputs": [
        {
          "internalType": "address",
          "name": "",
          "type": "address"
        }
      ],
      "name": "farmers",
      "outputs": [
        {
          "internalType": "address",
          "name": "FarmerWallet",
          "type": "address"
        },
        {
          "internalType": "uint256",
          "name": "id",
          "type": "uint256"
        },
        {
          "internalType": "string",
          "name": "Farmername",
          "type": "string"
        }
      ],
      "stateMutability": "view",
      "type": "function"
    },
    {
      "inputs": [
        {
          "internalType": "address",
          "name": "_address",
          "type": "address"
        }
      ],
      "name": "getCropForFarmer",
      "outputs": [
        {
          "components": [
            {
              "internalType": "uint256",
              "name": "cropId",
              "type": "uint256"
            },
            {
              "internalType": "uint256",
              "name": "cropPrice",
              "type": "uint256"
            },
            {
              "internalType": "string",
              "name": "cropName",
              "type": "string"
            },
            {
              "internalType": "string",
              "name": "location",
              "type": "string"
            }
          ],
          "internalType": "struct AgriVerify.Crop[]",
          "name": "",
          "type": "tuple[]"
        }
      ],
      "stateMutability": "view",
      "type": "function"
    },
    {
      "inputs": [
        {
          "internalType": "address",
          "name": "_address",
          "type": "address"
        }
      ],
      "name": "getFarmerByAddress",
      "outputs": [
        {
          "components": [
            {
              "internalType": "address",
              "name": "FarmerWallet",
              "type": "address"
            },
            {
              "internalType": "uint256",
              "name": "id",
              "type": "uint256"
            },
            {
              "internalType": "string",
              "name": "Farmername",
              "type": "string"
            },
            {
              "components": [
                {
                  "internalType": "uint256",
                  "name": "cropId",
                  "type": "uint256"
                },
                {
                  "internalType": "uint256",
                  "name": "cropPrice",
                  "type": "uint256"
                },
                {
                  "internalType": "string",
                  "name": "cropName",
                  "type": "string"
                },
                {
                  "internalType": "string",
                  "name": "location",
                  "type": "string"
                }
              ],
              "internalType": "struct AgriVerify.Crop[]",
              "name": "crops",
              "type": "tuple[]"
            }
          ],
          "internalType": "struct AgriVerify.Farmer",
          "name": "",
          "type": "tuple"
        }
      ],
      "stateMutability": "view",
      "type": "function"
    }
  ],
  "bytecode": "0x6080604052348015600f57600080fd5b5061132d8061001f6000396000f3fe608060405234801561001057600080fd5b50600436106100575760003560e01c8063401b21681461005c5780638bfd44191461008e578063bbab056e146100aa578063bdadf5be146100c6578063c83f7e86146100f6575b600080fd5b610076600480360381019061007191906109be565b610126565b60405161008593929190610aa3565b60405180910390f35b6100a860048036038101906100a39190610c42565b6101f8565b005b6100c460048036038101906100bf9190610cf5565b6102d2565b005b6100e060048036038101906100db91906109be565b610387565b6040516100ed9190610f4f565b60405180910390f35b610110600480360381019061010b91906109be565b610668565b60405161011d9190610ff7565b60405180910390f35b60006020528060005260406000206000915090508060000160009054906101000a900473ffffffffffffffffffffffffffffffffffffffff169080600101549080600201805461017590611048565b80601f01602080910402602001604051908101604052809291908181526020018280546101a190611048565b80156101ee5780601f106101c3576101008083540402835291602001916101ee565b820191906000526020600020905b8154815290600101906020018083116101d157829003601f168201915b5050505050905083565b600060405180608001604052808681526020018581526020018481526020018381525090506000808773ffffffffffffffffffffffffffffffffffffffff1673ffffffffffffffffffffffffffffffffffffffff168152602001908152602001600020600301819080600181540180825580915050600190039060005260206000209060040201600090919091909150600082015181600001556020820151816001015560408201518160020190816102b19190611225565b5060608201518160030190816102c79190611225565b505050505050505050565b60008060003373ffffffffffffffffffffffffffffffffffffffff1673ffffffffffffffffffffffffffffffffffffffff1681526020019081526020016000209050338160000160006101000a81548173ffffffffffffffffffffffffffffffffffffffff021916908373ffffffffffffffffffffffffffffffffffffffff160217905550828160010181905550818160020190816103719190611225565b508060030160006103829190610846565b505050565b61038f61086a565b6000808373ffffffffffffffffffffffffffffffffffffffff1673ffffffffffffffffffffffffffffffffffffffff1681526020019081526020016000206040518060800160405290816000820160009054906101000a900473ffffffffffffffffffffffffffffffffffffffff1673ffffffffffffffffffffffffffffffffffffffff1673ffffffffffffffffffffffffffffffffffffffff1681526020016001820154815260200160028201805461044890611048565b80601f016020809104026020016040519081016040528092919081815260200182805461047490611048565b80156104c15780601f10610496576101008083540402835291602001916104c1565b820191906000526020600020905b8154815290600101906020018083116104a457829003601f168201915b5050505050815260200160038201805480602002602001604051908101604052809291908181526020016000905b828210156106595783829060005260206000209060040201604051806080016040529081600082015481526020016001820154815260200160028201805461053690611048565b80601f016020809104026020016040519081016040528092919081815260200182805461056290611048565b80156105af5780601f10610584576101008083540402835291602001916105af565b820191906000526020600020905b81548152906001019060200180831161059257829003601f168201915b505050505081526020016003820180546105c890611048565b80601f01602080910402602001604051908101604052809291908181526020018280546105f490611048565b80156106415780601f1061061657610100808354040283529160200191610641565b820191906000526020600020905b81548152906001019060200180831161062457829003601f168201915b505050505081525050815260200190600101906104ef565b50505050815250509050919050565b606060008060008473ffffffffffffffffffffffffffffffffffffffff1673ffffffffffffffffffffffffffffffffffffffff168152602001908152602001600020600301805480602002602001604051908101604052809291908181526020016000905b828210156108375783829060005260206000209060040201604051806080016040529081600082015481526020016001820154815260200160028201805461071490611048565b80601f016020809104026020016040519081016040528092919081815260200182805461074090611048565b801561078d5780601f106107625761010080835404028352916020019161078d565b820191906000526020600020905b81548152906001019060200180831161077057829003601f168201915b505050505081526020016003820180546107a690611048565b80601f01602080910402602001604051908101604052809291908181526020018280546107d290611048565b801561081f5780601f106107f45761010080835404028352916020019161081f565b820191906000526020600020905b81548152906001019060200180831161080257829003601f168201915b505050505081525050815260200190600101906106cd565b50505050905080915050919050565b508054600082556004029060005260206000209081019061086791906108a8565b50565b6040518060800160405280600073ffffffffffffffffffffffffffffffffffffffff1681526020016000815260200160608152602001606081525090565b5b808211156108eb5760008082016000905560018201600090556002820160006108d291906108ef565b6003820160006108e291906108ef565b506004016108a9565b5090565b5080546108fb90611048565b6000825580601f1061090d575061092c565b601f01602090049060005260206000209081019061092b919061092f565b5b50565b5b80821115610948576000816000905550600101610930565b5090565b6000604051905090565b600080fd5b600080fd5b600073ffffffffffffffffffffffffffffffffffffffff82169050919050565b600061098b82610960565b9050919050565b61099b81610980565b81146109a657600080fd5b50565b6000813590506109b881610992565b92915050565b6000602082840312156109d4576109d3610956565b5b60006109e2848285016109a9565b91505092915050565b6109f481610980565b82525050565b6000819050919050565b610a0d816109fa565b82525050565b600081519050919050565b600082825260208201905092915050565b60005b83811015610a4d578082015181840152602081019050610a32565b60008484015250505050565b6000601f19601f8301169050919050565b6000610a7582610a13565b610a7f8185610a1e565b9350610a8f818560208601610a2f565b610a9881610a59565b840191505092915050565b6000606082019050610ab860008301866109eb565b610ac56020830185610a04565b8181036040830152610ad78184610a6a565b9050949350505050565b610aea816109fa565b8114610af557600080fd5b50565b600081359050610b0781610ae1565b92915050565b600080fd5b600080fd5b7f4e487b7100000000000000000000000000000000000000000000000000000000600052604160045260246000fd5b610b4f82610a59565b810181811067ffffffffffffffff82111715610b6e57610b6d610b17565b5b80604052505050565b6000610b8161094c565b9050610b8d8282610b46565b919050565b600067ffffffffffffffff821115610bad57610bac610b17565b5b610bb682610a59565b9050602081019050919050565b82818337600083830152505050565b6000610be5610be084610b92565b610b77565b905082815260208101848484011115610c0157610c00610b12565b5b610c0c848285610bc3565b509392505050565b600082601f830112610c2957610c28610b0d565b5b8135610c39848260208601610bd2565b91505092915050565b600080600080600060a08688031215610c5e57610c5d610956565b5b6000610c6c888289016109a9565b9550506020610c7d88828901610af8565b9450506040610c8e88828901610af8565b935050606086013567ffffffffffffffff811115610caf57610cae61095b565b5b610cbb88828901610c14565b925050608086013567ffffffffffffffff811115610cdc57610cdb61095b565b5b610ce888828901610c14565b9150509295509295909350565b60008060408385031215610d0c57610d0b610956565b5b6000610d1a85828601610af8565b925050602083013567ffffffffffffffff811115610d3b57610d3a61095b565b5b610d4785828601610c14565b9150509250929050565b610d5a81610980565b82525050565b610d69816109fa565b82525050565b600082825260208201905092915050565b6000610d8b82610a13565b610d958185610d6f565b9350610da5818560208601610a2f565b610dae81610a59565b840191505092915050565b600081519050919050565b600082825260208201905092915050565b6000819050602082019050919050565b6000608083016000830151610dfd6000860182610d60565b506020830151610e106020860182610d60565b5060408301518482036040860152610e288282610d80565b91505060608301518482036060860152610e428282610d80565b9150508091505092915050565b6000610e5b8383610de5565b905092915050565b6000602082019050919050565b6000610e7b82610db9565b610e858185610dc4565b935083602082028501610e9785610dd5565b8060005b85811015610ed35784840389528151610eb48582610e4f565b9450610ebf83610e63565b925060208a01995050600181019050610e9b565b50829750879550505050505092915050565b6000608083016000830151610efd6000860182610d51565b506020830151610f106020860182610d60565b5060408301518482036040860152610f288282610d80565b91505060608301518482036060860152610f428282610e70565b9150508091505092915050565b60006020820190508181036000830152610f698184610ee5565b905092915050565b600082825260208201905092915050565b6000610f8d82610db9565b610f978185610f71565b935083602082028501610fa985610dd5565b8060005b85811015610fe55784840389528151610fc68582610e4f565b9450610fd183610e63565b925060208a01995050600181019050610fad565b50829750879550505050505092915050565b600060208201905081810360008301526110118184610f82565b905092915050565b7f4e487b7100000000000000000000000000000000000000000000000000000000600052602260045260246000fd5b6000600282049050600182168061106057607f821691505b60208210810361107357611072611019565b5b50919050565b60008190508160005260206000209050919050565b60006020601f8301049050919050565b600082821b905092915050565b6000600883026110db7fffffffffffffffffffffffffffffffffffffffffffffffffffffffffffffffff8261109e565b6110e5868361109e565b95508019841693508086168417925050509392505050565b6000819050919050565b600061112261111d611118846109fa565b6110fd565b6109fa565b9050919050565b6000819050919050565b61113c83611107565b61115061114882611129565b8484546110ab565b825550505050565b600090565b611165611158565b611170818484611133565b505050565b5b818110156111945761118960008261115d565b600181019050611176565b5050565b601f8211156111d9576111aa81611079565b6111b38461108e565b810160208510156111c2578190505b6111d66111ce8561108e565b830182611175565b50505b505050565b600082821c905092915050565b60006111fc600019846008026111de565b1980831691505092915050565b600061121583836111eb565b9150826002028217905092915050565b61122e82610a13565b67ffffffffffffffff81111561124757611246610b17565b5b6112518254611048565b61125c828285611198565b600060209050601f83116001811461128f576000841561127d578287015190505b6112878582611209565b8655506112ef565b601f19841661129d86611079565b60005b828110156112c5578489015182556001820191506020850194506020810190506112a0565b868310156112e257848901516112de601f8916826111eb565b8355505b6001600288020188555050505b50505050505056fea264697066735822122000b2829031f8aa0148108a4c10d9ad2df2e7a6da04d36b70f8fc1c11be11b92064736f6c634300081b0033",
  "linkReferences": {},
  "deployedLinkReferences": {}
}