{
  "_format": "hh-sol-artifact-1",
  "contractName": "FarmManagement",
  "sourceName": "contracts/FarmManagement.sol",
  "abi": [
    {
      "inputs": [],
      "stateMutability": "nonpayable",
      "type": "constructor"
    },
    {
      "anonymous": false,
      "inputs": [
        {
          "indexed": true,
          "internalType": "address",
          "name": "owner",
          "type": "address"
        },
        {
          "indexed": true,
          "internalType": "address",
          "name": "approved",
          "type": "address"
        },
        {
          "indexed": true,
          "internalType": "uint256",
          "name": "tokenId",
          "type": "uint256"
        }
      ],
      "name": "Approval",
      "type": "event"
    },
    {
      "anonymous": false,
      "inputs": [
        {
          "indexed": true,
          "internalType": "address",
          "name": "owner",
          "type": "address"
        },
        {
          "indexed": true,
          "internalType": "address",
          "name": "operator",
          "type": "address"
        },
        {
          "indexed": false,
          "internalType": "bool",
          "name": "approved",
          "type": "bool"
        }
      ],
      "name": "ApprovalForAll",
      "type": "event"
    },
    {
      "anonymous": false,
      "inputs": [
        {
          "indexed": false,
          "internalType": "uint256",
          "name": "_fromTokenId",
          "type": "uint256"
        },
        {
          "indexed": false,
          "internalType": "uint256",
          "name": "_toTokenId",
          "type": "uint256"
        }
      ],
      "name": "BatchMetadataUpdate",
      "type": "event"
    },
    {
      "anonymous": false,
      "inputs": [
        {
          "indexed": false,
          "internalType": "uint256",
          "name": "farmerId",
          "type": "uint256"
        },
        {
          "indexed": false,
          "internalType": "uint256",
          "name": "cropId",
          "type": "uint256"
        },
        {
          "indexed": false,
          "internalType": "string",
          "name": "cropName",
          "type": "string"
        },
        {
          "indexed": false,
          "internalType": "uint256",
          "name": "quantity",
          "type": "uint256"
        },
        {
          "indexed": false,
          "internalType": "uint256",
          "name": "nftTokenId",
          "type": "uint256"
        },
        {
          "indexed": false,
          "internalType": "string",
          "name": "ipfsHash",
          "type": "string"
        }
      ],
      "name": "CropAdded",
      "type": "event"
    },
    {
      "anonymous": false,
      "inputs": [
        {
          "indexed": false,
          "internalType": "uint256",
          "name": "farmerId",
          "type": "uint256"
        },
        {
          "indexed": false,
          "internalType": "string",
          "name": "name",
          "type": "string"
        }
      ],
      "name": "FarmerAdded",
      "type": "event"
    },
    {
      "anonymous": false,
      "inputs": [
        {
          "indexed": false,
          "internalType": "uint256",
          "name": "_tokenId",
          "type": "uint256"
        }
      ],
      "name": "MetadataUpdate",
      "type": "event"
    },
    {
      "anonymous": false,
      "inputs": [
        {
          "indexed": false,
          "internalType": "uint256",
          "name": "tokenId",
          "type": "uint256"
        },
        {
          "indexed": false,
          "internalType": "address",
          "name": "recipient",
          "type": "address"
        },
        {
          "indexed": false,
          "internalType": "string",
          "name": "ipfsHash",
          "type": "string"
        }
      ],
      "name": "NFTMinted",
      "type": "event"
    },
    {
      "anonymous": false,
      "inputs": [
        {
          "indexed": true,
          "internalType": "address",
          "name": "from",
          "type": "address"
        },
        {
          "indexed": true,
          "internalType": "address",
          "name": "to",
          "type": "address"
        },
        {
          "indexed": true,
          "internalType": "uint256",
          "name": "tokenId",
          "type": "uint256"
        }
      ],
      "name": "Transfer",
      "type": "event"
    },
    {
      "inputs": [
        {
          "internalType": "uint256",
          "name": "_farmerId",
          "type": "uint256"
        },
        {
          "internalType": "string",
          "name": "_cropName",
          "type": "string"
        },
        {
          "internalType": "uint256",
          "name": "_quantity",
          "type": "uint256"
        },
        {
          "internalType": "string",
          "name": "_ipfsHash",
          "type": "string"
        }
      ],
      "name": "addCrop",
      "outputs": [],
      "stateMutability": "nonpayable",
      "type": "function"
    },
    {
      "inputs": [
        {
          "internalType": "string",
          "name": "_name",
          "type": "string"
        }
      ],
      "name": "addFarmer",
      "outputs": [],
      "stateMutability": "nonpayable",
      "type": "function"
    },
    {
      "inputs": [
        {
          "internalType": "address",
          "name": "to",
          "type": "address"
        },
        {
          "internalType": "uint256",
          "name": "tokenId",
          "type": "uint256"
        }
      ],
      "name": "approve",
      "outputs": [],
      "stateMutability": "nonpayable",
      "type": "function"
    },
    {
      "inputs": [
        {
          "internalType": "address",
          "name": "owner",
          "type": "address"
        }
      ],
      "name": "balanceOf",
      "outputs": [
        {
          "internalType": "uint256",
          "name": "",
          "type": "uint256"
        }
      ],
      "stateMutability": "view",
      "type": "function"
    },
    {
      "inputs": [],
      "name": "farmerCount",
      "outputs": [
        {
          "internalType": "uint256",
          "name": "",
          "type": "uint256"
        }
      ],
      "stateMutability": "view",
      "type": "function"
    },
    {
      "inputs": [
        {
          "internalType": "uint256",
          "name": "",
          "type": "uint256"
        }
      ],
      "name": "farmers",
      "outputs": [
        {
          "internalType": "uint256",
          "name": "farmerId",
          "type": "uint256"
        },
        {
          "internalType": "string",
          "name": "name",
          "type": "string"
        },
        {
          "internalType": "uint256",
          "name": "cropCount",
          "type": "uint256"
        }
      ],
      "stateMutability": "view",
      "type": "function"
    },
    {
      "inputs": [
        {
          "internalType": "uint256",
          "name": "tokenId",
          "type": "uint256"
        }
      ],
      "name": "getApproved",
      "outputs": [
        {
          "internalType": "address",
          "name": "",
          "type": "address"
        }
      ],
      "stateMutability": "view",
      "type": "function"
    },
    {
      "inputs": [
        {
          "internalType": "uint256",
          "name": "_farmerId",
          "type": "uint256"
        },
        {
          "internalType": "uint256",
          "name": "_cropId",
          "type": "uint256"
        }
      ],
      "name": "getCrop",
      "outputs": [
        {
          "internalType": "uint256",
          "name": "cropId",
          "type": "uint256"
        },
        {
          "internalType": "string",
          "name": "cropName",
          "type": "string"
        },
        {
          "internalType": "uint256",
          "name": "quantity",
          "type": "uint256"
        },
        {
          "internalType": "uint256",
          "name": "nftTokenId",
          "type": "uint256"
        },
        {
          "internalType": "string",
          "name": "ipfsHash",
          "type": "string"
        }
      ],
      "stateMutability": "view",
      "type": "function"
    },
    {
      "inputs": [
        {
          "internalType": "address",
          "name": "owner",
          "type": "address"
        },
        {
          "internalType": "address",
          "name": "operator",
          "type": "address"
        }
      ],
      "name": "isApprovedForAll",
      "outputs": [
        {
          "internalType": "bool",
          "name": "",
          "type": "bool"
        }
      ],
      "stateMutability": "view",
      "type": "function"
    },
    {
      "inputs": [],
      "name": "name",
      "outputs": [
        {
          "internalType": "string",
          "name": "",
          "type": "string"
        }
      ],
      "stateMutability": "view",
      "type": "function"
    },
    {
      "inputs": [
        {
          "internalType": "uint256",
          "name": "tokenId",
          "type": "uint256"
        }
      ],
      "name": "ownerOf",
      "outputs": [
        {
          "internalType": "address",
          "name": "",
          "type": "address"
        }
      ],
      "stateMutability": "view",
      "type": "function"
    },
    {
      "inputs": [
        {
          "internalType": "uint256",
          "name": "_farmerId",
          "type": "uint256"
        },
        {
          "internalType": "uint256",
          "name": "_cropId",
          "type": "uint256"
        }
      ],
      "name": "ownerOfCropNFT",
      "outputs": [
        {
          "internalType": "address",
          "name": "",
          "type": "address"
        }
      ],
      "stateMutability": "view",
      "type": "function"
    },
    {
      "inputs": [
        {
          "internalType": "address",
          "name": "from",
          "type": "address"
        },
        {
          "internalType": "address",
          "name": "to",
          "type": "address"
        },
        {
          "internalType": "uint256",
          "name": "tokenId",
          "type": "uint256"
        }
      ],
      "name": "safeTransferFrom",
      "outputs": [],
      "stateMutability": "nonpayable",
      "type": "function"
    },
    {
      "inputs": [
        {
          "internalType": "address",
          "name": "from",
          "type": "address"
        },
        {
          "internalType": "address",
          "name": "to",
          "type": "address"
        },
        {
          "internalType": "uint256",
          "name": "tokenId",
          "type": "uint256"
        },
        {
          "internalType": "bytes",
          "name": "data",
          "type": "bytes"
        }
      ],
      "name": "safeTransferFrom",
      "outputs": [],
      "stateMutability": "nonpayable",
      "type": "function"
    },
    {
      "inputs": [
        {
          "internalType": "address",
          "name": "operator",
          "type": "address"
        },
        {
          "internalType": "bool",
          "name": "approved",
          "type": "bool"
        }
      ],
      "name": "setApprovalForAll",
      "outputs": [],
      "stateMutability": "nonpayable",
      "type": "function"
    },
    {
      "inputs": [
        {
          "internalType": "bytes4",
          "name": "interfaceId",
          "type": "bytes4"
        }
      ],
      "name": "supportsInterface",
      "outputs": [
        {
          "internalType": "bool",
          "name": "",
          "type": "bool"
        }
      ],
      "stateMutability": "view",
      "type": "function"
    },
    {
      "inputs": [],
      "name": "symbol",
      "outputs": [
        {
          "internalType": "string",
          "name": "",
          "type": "string"
        }
      ],
      "stateMutability": "view",
      "type": "function"
    },
    {
      "inputs": [
        {
          "internalType": "uint256",
          "name": "tokenId",
          "type": "uint256"
        }
      ],
      "name": "tokenURI",
      "outputs": [
        {
          "internalType": "string",
          "name": "",
          "type": "string"
        }
      ],
      "stateMutability": "view",
      "type": "function"
    },
    {
      "inputs": [
        {
          "internalType": "address",
          "name": "from",
          "type": "address"
        },
        {
          "internalType": "address",
          "name": "to",
          "type": "address"
        },
        {
          "internalType": "uint256",
          "name": "tokenId",
          "type": "uint256"
        }
      ],
      "name": "transferFrom",
      "outputs": [],
      "stateMutability": "nonpayable",
      "type": "function"
    }
  ],
  "bytecode": "0x6080604052600060095534801561001557600080fd5b506040518060400160405280600b81526020017f4661726d43726f704e46540000000000000000000000000000000000000000008152506040518060400160405280600581526020017f46434e4654000000000000000000000000000000000000000000000000000000815250816000908161009191906102f9565b5080600190816100a191906102f9565b5050506103cb565b600081519050919050565b7f4e487b7100000000000000000000000000000000000000000000000000000000600052604160045260246000fd5b7f4e487b7100000000000000000000000000000000000000000000000000000000600052602260045260246000fd5b6000600282049050600182168061012a57607f821691505b60208210810361013d5761013c6100e3565b5b50919050565b60008190508160005260206000209050919050565b60006020601f8301049050919050565b600082821b905092915050565b6000600883026101a57fffffffffffffffffffffffffffffffffffffffffffffffffffffffffffffffff82610168565b6101af8683610168565b95508019841693508086168417925050509392505050565b6000819050919050565b6000819050919050565b60006101f66101f16101ec846101c7565b6101d1565b6101c7565b9050919050565b6000819050919050565b610210836101db565b61022461021c826101fd565b848454610175565b825550505050565b600090565b61023961022c565b610244818484610207565b505050565b5b818110156102685761025d600082610231565b60018101905061024a565b5050565b601f8211156102ad5761027e81610143565b61028784610158565b81016020851015610296578190505b6102aa6102a285610158565b830182610249565b50505b505050565b600082821c905092915050565b60006102d0600019846008026102b2565b1980831691505092915050565b60006102e983836102bf565b9150826002028217905092915050565b610302826100a9565b67ffffffffffffffff81111561031b5761031a6100b4565b5b6103258254610112565b61033082828561026c565b600060209050601f8311600181146103635760008415610351578287015190505b61035b85826102dd565b8655506103c3565b601f19841661037186610143565b60005b8281101561039957848901518255600182019150602085019450602081019050610374565b868310156103b657848901516103b2601f8916826102bf565b8355505b6001600288020188555050505b505050505050565b6133f1806103da6000396000f3fe608060405234801561001057600080fd5b50600436106101215760003560e01c80636352211e116100ad578063b88d4fde11610071578063b88d4fde1461032c578063bd45b39714610348578063c87b56dd14610366578063e985e9c514610396578063f82002e3146103c657610121565b80636352211e1461026057806370a08231146102905780638afdd669146102c057806395d89b41146102f2578063a22cb4651461031057610121565b8063095ea7b3116100f4578063095ea7b3146101d457806323b872dd146101f05780632d7e2e8b1461020c57806342842e0e1461022857806358c910be1461024457610121565b806301ffc9a71461012657806306fdde0314610156578063081812fc1461017457806308ed6bfe146101a4575b600080fd5b610140600480360381019061013b9190611fb5565b6103fa565b60405161014d9190611ffd565b60405180910390f35b61015e61045b565b60405161016b91906120a8565b60405180910390f35b61018e60048036038101906101899190612100565b6104ed565b60405161019b919061216e565b60405180910390f35b6101be60048036038101906101b99190612189565b610533565b6040516101cb919061216e565b60405180910390f35b6101ee60048036038101906101e991906121f5565b61057b565b005b61020a60048036038101906102059190612235565b610692565b005b610226600480360381019061022191906123bd565b6106f2565b005b610242600480360381019061023d9190612235565b610789565b005b61025e60048036038101906102599190612406565b6107a9565b005b61027a60048036038101906102759190612100565b61096e565b604051610287919061216e565b60405180910390f35b6102aa60048036038101906102a591906124a5565b6109f4565b6040516102b791906124e1565b60405180910390f35b6102da60048036038101906102d59190612100565b610aab565b6040516102e9939291906124fc565b60405180910390f35b6102fa610b5d565b60405161030791906120a8565b60405180910390f35b61032a60048036038101906103259190612566565b610bef565b005b61034660048036038101906103419190612647565b610c05565b005b610350610c67565b60405161035d91906124e1565b60405180910390f35b610380600480360381019061037b9190612100565b610c6d565b60405161038d91906120a8565b60405180910390f35b6103b060048036038101906103ab91906126ca565b610d7f565b6040516103bd9190611ffd565b60405180910390f35b6103e060048036038101906103db9190612189565b610e13565b6040516103f195949392919061270a565b60405180910390f35b6000634906490660e01b7bffffffffffffffffffffffffffffffffffffffffffffffffffffffff1916827bffffffffffffffffffffffffffffffffffffffffffffffffffffffff19161480610454575061045382610fe2565b5b9050919050565b60606000805461046a9061279a565b80601f01602080910402602001604051908101604052809291908181526020018280546104969061279a565b80156104e35780601f106104b8576101008083540402835291602001916104e3565b820191906000526020600020905b8154815290600101906020018083116104c657829003601f168201915b5050505050905090565b60006104f8826110c4565b6004600083815260200190815260200160002060009054906101000a900473ffffffffffffffffffffffffffffffffffffffff169050919050565b60008060086000858152602001908152602001600020905060008160020160008581526020019081526020016000209050610571816003015461096e565b9250505092915050565b60006105868261096e565b90508073ffffffffffffffffffffffffffffffffffffffff168373ffffffffffffffffffffffffffffffffffffffff16036105f6576040517f08c379a00000000000000000000000000000000000000000000000000000000081526004016105ed9061283d565b60405180910390fd5b8073ffffffffffffffffffffffffffffffffffffffff1661061561110f565b73ffffffffffffffffffffffffffffffffffffffff16148061064457506106438161063e61110f565b610d7f565b5b610683576040517f08c379a000000000000000000000000000000000000000000000000000000000815260040161067a906128cf565b60405180910390fd5b61068d8383611117565b505050565b6106a361069d61110f565b826111d0565b6106e2576040517f08c379a00000000000000000000000000000000000000000000000000000000081526004016106d990612961565b60405180910390fd5b6106ed838383611265565b505050565b60096000815480929190610705906129b0565b91905055506000600860006009548152602001908152602001600020905060095481600001819055508181600101908161073f9190612ba4565b50600081600301819055507f6f64f6a36c074a576133bd541258374b5b5197a46139a3d5fc1a11a4d922ea196009548360405161077d929190612c76565b60405180910390a15050565b6107a483838360405180602001604052806000815250610c05565b505050565b6000841180156107bb57506009548411155b6107fa576040517f08c379a00000000000000000000000000000000000000000000000000000000081526004016107f190612cf2565b60405180910390fd5b6000600860008681526020019081526020016000209050806003016000815480929190610826906129b0565b919050555060008160030154905061083e600761155e565b600061084a6007611574565b90506108563382611582565b610860818561179f565b6040518060a00160405280838152602001878152602001868152602001828152602001858152508360020160008481526020019081526020016000206000820151816000015560208201518160010190816108bb9190612ba4565b50604082015181600201556060820151816003015560808201518160040190816108e59190612ba4565b509050507f4753709f58f315faaa2eaab0d7b127694cad502a2b221bf72339bcc39c71413b87838888858960405161092296959493929190612d12565b60405180910390a17f06becd955c918828f6e985541acbf49cc842c9e9bd569fffc7698e721ef1357581338660405161095d93929190612d81565b60405180910390a150505050505050565b60008061097a83611843565b9050600073ffffffffffffffffffffffffffffffffffffffff168173ffffffffffffffffffffffffffffffffffffffff16036109eb576040517f08c379a00000000000000000000000000000000000000000000000000000000081526004016109e290612e0b565b60405180910390fd5b80915050919050565b60008073ffffffffffffffffffffffffffffffffffffffff168273ffffffffffffffffffffffffffffffffffffffff1603610a64576040517f08c379a0000000000000000000000000000000000000000000000000000000008152600401610a5b90612e9d565b60405180910390fd5b600360008373ffffffffffffffffffffffffffffffffffffffff1673ffffffffffffffffffffffffffffffffffffffff168152602001908152602001600020549050919050565b6008602052806000526040600020600091509050806000015490806001018054610ad49061279a565b80601f0160208091040260200160405190810160405280929190818152602001828054610b009061279a565b8015610b4d5780601f10610b2257610100808354040283529160200191610b4d565b820191906000526020600020905b815481529060010190602001808311610b3057829003601f168201915b5050505050908060030154905083565b606060018054610b6c9061279a565b80601f0160208091040260200160405190810160405280929190818152602001828054610b989061279a565b8015610be55780601f10610bba57610100808354040283529160200191610be5565b820191906000526020600020905b815481529060010190602001808311610bc857829003601f168201915b5050505050905090565b610c01610bfa61110f565b8383611880565b5050565b610c16610c1061110f565b836111d0565b610c55576040517f08c379a0000000000000000000000000000000000000000000000000000000008152600401610c4c90612961565b60405180910390fd5b610c61848484846119ec565b50505050565b60095481565b6060610c78826110c4565b6000600660008481526020019081526020016000208054610c989061279a565b80601f0160208091040260200160405190810160405280929190818152602001828054610cc49061279a565b8015610d115780601f10610ce657610100808354040283529160200191610d11565b820191906000526020600020905b815481529060010190602001808311610cf457829003601f168201915b505050505090506000610d22611a48565b90506000815103610d37578192505050610d7a565b600082511115610d6c578082604051602001610d54929190612ef9565b60405160208183030381529060405292505050610d7a565b610d7584611a5f565b925050505b919050565b6000600560008473ffffffffffffffffffffffffffffffffffffffff1673ffffffffffffffffffffffffffffffffffffffff16815260200190815260200160002060008373ffffffffffffffffffffffffffffffffffffffff1673ffffffffffffffffffffffffffffffffffffffff16815260200190815260200160002060009054906101000a900460ff16905092915050565b600060606000806060600087118015610e2e57506009548711155b610e6d576040517f08c379a0000000000000000000000000000000000000000000000000000000008152600401610e6490612cf2565b60405180910390fd5b6000600860008981526020019081526020016000209050600081600201600089815260200190815260200160002090508060000154816001018260020154836003015484600401838054610ec09061279a565b80601f0160208091040260200160405190810160405280929190818152602001828054610eec9061279a565b8015610f395780601f10610f0e57610100808354040283529160200191610f39565b820191906000526020600020905b815481529060010190602001808311610f1c57829003601f168201915b50505050509350808054610f4c9061279a565b80601f0160208091040260200160405190810160405280929190818152602001828054610f789061279a565b8015610fc55780601f10610f9a57610100808354040283529160200191610fc5565b820191906000526020600020905b815481529060010190602001808311610fa857829003601f168201915b505050505090509650965096509650965050509295509295909350565b60007f80ac58cd000000000000000000000000000000000000000000000000000000007bffffffffffffffffffffffffffffffffffffffffffffffffffffffff1916827bffffffffffffffffffffffffffffffffffffffffffffffffffffffff191614806110ad57507f5b5e139f000000000000000000000000000000000000000000000000000000007bffffffffffffffffffffffffffffffffffffffffffffffffffffffff1916827bffffffffffffffffffffffffffffffffffffffffffffffffffffffff1916145b806110bd57506110bc82611ac7565b5b9050919050565b6110cd81611b31565b61110c576040517f08c379a000000000000000000000000000000000000000000000000000000000815260040161110390612e0b565b60405180910390fd5b50565b600033905090565b816004600083815260200190815260200160002060006101000a81548173ffffffffffffffffffffffffffffffffffffffff021916908373ffffffffffffffffffffffffffffffffffffffff160217905550808273ffffffffffffffffffffffffffffffffffffffff1661118a8361096e565b73ffffffffffffffffffffffffffffffffffffffff167f8c5be1e5ebec7d5bd14f71427d1e84f3dd0314c0f7b2291e5b200ac8c7c3b92560405160405180910390a45050565b6000806111dc8361096e565b90508073ffffffffffffffffffffffffffffffffffffffff168473ffffffffffffffffffffffffffffffffffffffff16148061121e575061121d8185610d7f565b5b8061125c57508373ffffffffffffffffffffffffffffffffffffffff16611244846104ed565b73ffffffffffffffffffffffffffffffffffffffff16145b91505092915050565b8273ffffffffffffffffffffffffffffffffffffffff166112858261096e565b73ffffffffffffffffffffffffffffffffffffffff16146112db576040517f08c379a00000000000000000000000000000000000000000000000000000000081526004016112d290612f8f565b60405180910390fd5b600073ffffffffffffffffffffffffffffffffffffffff168273ffffffffffffffffffffffffffffffffffffffff160361134a576040517f08c379a000000000000000000000000000000000000000000000000000000000815260040161134190613021565b60405180910390fd5b6113578383836001611b72565b8273ffffffffffffffffffffffffffffffffffffffff166113778261096e565b73ffffffffffffffffffffffffffffffffffffffff16146113cd576040517f08c379a00000000000000000000000000000000000000000000000000000000081526004016113c490612f8f565b60405180910390fd5b6004600082815260200190815260200160002060006101000a81549073ffffffffffffffffffffffffffffffffffffffff02191690556001600360008573ffffffffffffffffffffffffffffffffffffffff1673ffffffffffffffffffffffffffffffffffffffff168152602001908152602001600020600082825403925050819055506001600360008473ffffffffffffffffffffffffffffffffffffffff1673ffffffffffffffffffffffffffffffffffffffff16815260200190815260200160002060008282540192505081905550816002600083815260200190815260200160002060006101000a81548173ffffffffffffffffffffffffffffffffffffffff021916908373ffffffffffffffffffffffffffffffffffffffff160217905550808273ffffffffffffffffffffffffffffffffffffffff168473ffffffffffffffffffffffffffffffffffffffff167fddf252ad1be2c89b69c2b068fc378daa952ba7f163c4a11628f55a4df523b3ef60405160405180910390a46115598383836001611b78565b505050565b6001816000016000828254019250508190555050565b600081600001549050919050565b600073ffffffffffffffffffffffffffffffffffffffff168273ffffffffffffffffffffffffffffffffffffffff16036115f1576040517f08c379a00000000000000000000000000000000000000000000000000000000081526004016115e89061308d565b60405180910390fd5b6115fa81611b31565b1561163a576040517f08c379a0000000000000000000000000000000000000000000000000000000008152600401611631906130f9565b60405180910390fd5b611648600083836001611b72565b61165181611b31565b15611691576040517f08c379a0000000000000000000000000000000000000000000000000000000008152600401611688906130f9565b60405180910390fd5b6001600360008473ffffffffffffffffffffffffffffffffffffffff1673ffffffffffffffffffffffffffffffffffffffff16815260200190815260200160002060008282540192505081905550816002600083815260200190815260200160002060006101000a81548173ffffffffffffffffffffffffffffffffffffffff021916908373ffffffffffffffffffffffffffffffffffffffff160217905550808273ffffffffffffffffffffffffffffffffffffffff16600073ffffffffffffffffffffffffffffffffffffffff167fddf252ad1be2c89b69c2b068fc378daa952ba7f163c4a11628f55a4df523b3ef60405160405180910390a461179b600083836001611b78565b5050565b6117a882611b31565b6117e7576040517f08c379a00000000000000000000000000000000000000000000000000000000081526004016117de9061318b565b60405180910390fd5b806006600084815260200190815260200160002090816118079190612ba4565b507ff8e1a15aba9398e019f0b49df1a4fde98ee17ae345cb5f6b5e2c27f5033e8ce78260405161183791906124e1565b60405180910390a15050565b60006002600083815260200190815260200160002060009054906101000a900473ffffffffffffffffffffffffffffffffffffffff169050919050565b8173ffffffffffffffffffffffffffffffffffffffff168373ffffffffffffffffffffffffffffffffffffffff16036118ee576040517f08c379a00000000000000000000000000000000000000000000000000000000081526004016118e5906131f7565b60405180910390fd5b80600560008573ffffffffffffffffffffffffffffffffffffffff1673ffffffffffffffffffffffffffffffffffffffff16815260200190815260200160002060008473ffffffffffffffffffffffffffffffffffffffff1673ffffffffffffffffffffffffffffffffffffffff16815260200190815260200160002060006101000a81548160ff0219169083151502179055508173ffffffffffffffffffffffffffffffffffffffff168373ffffffffffffffffffffffffffffffffffffffff167f17307eab39ab6107e8899845ad3d59bd9653f200f220920489ca2b5937696c31836040516119df9190611ffd565b60405180910390a3505050565b6119f7848484611265565b611a0384848484611b7e565b611a42576040517f08c379a0000000000000000000000000000000000000000000000000000000008152600401611a3990613289565b60405180910390fd5b50505050565b606060405180602001604052806000815250905090565b6060611a6a826110c4565b6000611a74611a48565b90506000815111611a945760405180602001604052806000815250611abf565b80611a9e84611d05565b604051602001611aaf929190612ef9565b6040516020818303038152906040525b915050919050565b60007f01ffc9a7000000000000000000000000000000000000000000000000000000007bffffffffffffffffffffffffffffffffffffffffffffffffffffffff1916827bffffffffffffffffffffffffffffffffffffffffffffffffffffffff1916149050919050565b60008073ffffffffffffffffffffffffffffffffffffffff16611b5383611843565b73ffffffffffffffffffffffffffffffffffffffff1614159050919050565b50505050565b50505050565b6000611b9f8473ffffffffffffffffffffffffffffffffffffffff16611dd3565b15611cf8578373ffffffffffffffffffffffffffffffffffffffff1663150b7a02611bc861110f565b8786866040518563ffffffff1660e01b8152600401611bea94939291906132fe565b6020604051808303816000875af1925050508015611c2657506040513d601f19601f82011682018060405250810190611c23919061335f565b60015b611ca8573d8060008114611c56576040519150601f19603f3d011682016040523d82523d6000602084013e611c5b565b606091505b506000815103611ca0576040517f08c379a0000000000000000000000000000000000000000000000000000000008152600401611c9790613289565b60405180910390fd5b805181602001fd5b63150b7a0260e01b7bffffffffffffffffffffffffffffffffffffffffffffffffffffffff1916817bffffffffffffffffffffffffffffffffffffffffffffffffffffffff191614915050611cfd565b600190505b949350505050565b606060006001611d1484611df6565b01905060008167ffffffffffffffff811115611d3357611d32612292565b5b6040519080825280601f01601f191660200182016040528015611d655781602001600182028036833780820191505090505b509050600082602001820190505b600115611dc8578080600190039150507f3031323334353637383961626364656600000000000000000000000000000000600a86061a8153600a8581611dbc57611dbb61338c565b5b04945060008503611d73575b819350505050919050565b6000808273ffffffffffffffffffffffffffffffffffffffff163b119050919050565b600080600090507a184f03e93ff9f4daa797ed6e38ed64bf6a1f0100000000000000008310611e54577a184f03e93ff9f4daa797ed6e38ed64bf6a1f0100000000000000008381611e4a57611e4961338c565b5b0492506040810190505b6d04ee2d6d415b85acef81000000008310611e91576d04ee2d6d415b85acef81000000008381611e8757611e8661338c565b5b0492506020810190505b662386f26fc100008310611ec057662386f26fc100008381611eb657611eb561338c565b5b0492506010810190505b6305f5e1008310611ee9576305f5e1008381611edf57611ede61338c565b5b0492506008810190505b6127108310611f0e576127108381611f0457611f0361338c565b5b0492506004810190505b60648310611f315760648381611f2757611f2661338c565b5b0492506002810190505b600a8310611f40576001810190505b80915050919050565b6000604051905090565b600080fd5b600080fd5b60007fffffffff0000000000000000000000000000000000000000000000000000000082169050919050565b611f9281611f5d565b8114611f9d57600080fd5b50565b600081359050611faf81611f89565b92915050565b600060208284031215611fcb57611fca611f53565b5b6000611fd984828501611fa0565b91505092915050565b60008115159050919050565b611ff781611fe2565b82525050565b60006020820190506120126000830184611fee565b92915050565b600081519050919050565b600082825260208201905092915050565b60005b83811015612052578082015181840152602081019050612037565b60008484015250505050565b6000601f19601f8301169050919050565b600061207a82612018565b6120848185612023565b9350612094818560208601612034565b61209d8161205e565b840191505092915050565b600060208201905081810360008301526120c2818461206f565b905092915050565b6000819050919050565b6120dd816120ca565b81146120e857600080fd5b50565b6000813590506120fa816120d4565b92915050565b60006020828403121561211657612115611f53565b5b6000612124848285016120eb565b91505092915050565b600073ffffffffffffffffffffffffffffffffffffffff82169050919050565b60006121588261212d565b9050919050565b6121688161214d565b82525050565b6000602082019050612183600083018461215f565b92915050565b600080604083850312156121a05761219f611f53565b5b60006121ae858286016120eb565b92505060206121bf858286016120eb565b9150509250929050565b6121d28161214d565b81146121dd57600080fd5b50565b6000813590506121ef816121c9565b92915050565b6000806040838503121561220c5761220b611f53565b5b600061221a858286016121e0565b925050602061222b858286016120eb565b9150509250929050565b60008060006060848603121561224e5761224d611f53565b5b600061225c868287016121e0565b935050602061226d868287016121e0565b925050604061227e868287016120eb565b9150509250925092565b600080fd5b600080fd5b7f4e487b7100000000000000000000000000000000000000000000000000000000600052604160045260246000fd5b6122ca8261205e565b810181811067ffffffffffffffff821117156122e9576122e8612292565b5b80604052505050565b60006122fc611f49565b905061230882826122c1565b919050565b600067ffffffffffffffff82111561232857612327612292565b5b6123318261205e565b9050602081019050919050565b82818337600083830152505050565b600061236061235b8461230d565b6122f2565b90508281526020810184848401111561237c5761237b61228d565b5b61238784828561233e565b509392505050565b600082601f8301126123a4576123a3612288565b5b81356123b484826020860161234d565b91505092915050565b6000602082840312156123d3576123d2611f53565b5b600082013567ffffffffffffffff8111156123f1576123f0611f58565b5b6123fd8482850161238f565b91505092915050565b600080600080608085870312156124205761241f611f53565b5b600061242e878288016120eb565b945050602085013567ffffffffffffffff81111561244f5761244e611f58565b5b61245b8782880161238f565b935050604061246c878288016120eb565b925050606085013567ffffffffffffffff81111561248d5761248c611f58565b5b6124998782880161238f565b91505092959194509250565b6000602082840312156124bb576124ba611f53565b5b60006124c9848285016121e0565b91505092915050565b6124db816120ca565b82525050565b60006020820190506124f660008301846124d2565b92915050565b600060608201905061251160008301866124d2565b8181036020830152612523818561206f565b905061253260408301846124d2565b949350505050565b61254381611fe2565b811461254e57600080fd5b50565b6000813590506125608161253a565b92915050565b6000806040838503121561257d5761257c611f53565b5b600061258b858286016121e0565b925050602061259c85828601612551565b9150509250929050565b600067ffffffffffffffff8211156125c1576125c0612292565b5b6125ca8261205e565b9050602081019050919050565b60006125ea6125e5846125a6565b6122f2565b9050828152602081018484840111156126065761260561228d565b5b61261184828561233e565b509392505050565b600082601f83011261262e5761262d612288565b5b813561263e8482602086016125d7565b91505092915050565b6000806000806080858703121561266157612660611f53565b5b600061266f878288016121e0565b9450506020612680878288016121e0565b9350506040612691878288016120eb565b925050606085013567ffffffffffffffff8111156126b2576126b1611f58565b5b6126be87828801612619565b91505092959194509250565b600080604083850312156126e1576126e0611f53565b5b60006126ef858286016121e0565b9250506020612700858286016121e0565b9150509250929050565b600060a08201905061271f60008301886124d2565b8181036020830152612731818761206f565b905061274060408301866124d2565b61274d60608301856124d2565b818103608083015261275f818461206f565b90509695505050505050565b7f4e487b7100000000000000000000000000000000000000000000000000000000600052602260045260246000fd5b600060028204905060018216806127b257607f821691505b6020821081036127c5576127c461276b565b5b50919050565b7f4552433732313a20617070726f76616c20746f2063757272656e74206f776e6560008201527f7200000000000000000000000000000000000000000000000000000000000000602082015250565b6000612827602183612023565b9150612832826127cb565b604082019050919050565b600060208201905081810360008301526128568161281a565b9050919050565b7f4552433732313a20617070726f76652063616c6c6572206973206e6f7420746f60008201527f6b656e206f776e6572206f7220617070726f76656420666f7220616c6c000000602082015250565b60006128b9603d83612023565b91506128c48261285d565b604082019050919050565b600060208201905081810360008301526128e8816128ac565b9050919050565b7f4552433732313a2063616c6c6572206973206e6f7420746f6b656e206f776e6560008201527f72206f7220617070726f76656400000000000000000000000000000000000000602082015250565b600061294b602d83612023565b9150612956826128ef565b604082019050919050565b6000602082019050818103600083015261297a8161293e565b9050919050565b7f4e487b7100000000000000000000000000000000000000000000000000000000600052601160045260246000fd5b60006129bb826120ca565b91507fffffffffffffffffffffffffffffffffffffffffffffffffffffffffffffffff82036129ed576129ec612981565b5b600182019050919050565b60008190508160005260206000209050919050565b60006020601f8301049050919050565b600082821b905092915050565b600060088302612a5a7fffffffffffffffffffffffffffffffffffffffffffffffffffffffffffffffff82612a1d565b612a648683612a1d565b95508019841693508086168417925050509392505050565b6000819050919050565b6000612aa1612a9c612a97846120ca565b612a7c565b6120ca565b9050919050565b6000819050919050565b612abb83612a86565b612acf612ac782612aa8565b848454612a2a565b825550505050565b600090565b612ae4612ad7565b612aef818484612ab2565b505050565b5b81811015612b1357612b08600082612adc565b600181019050612af5565b5050565b601f821115612b5857612b29816129f8565b612b3284612a0d565b81016020851015612b41578190505b612b55612b4d85612a0d565b830182612af4565b50505b505050565b600082821c905092915050565b6000612b7b60001984600802612b5d565b1980831691505092915050565b6000612b948383612b6a565b9150826002028217905092915050565b612bad82612018565b67ffffffffffffffff811115612bc657612bc5612292565b5b612bd0825461279a565b612bdb828285612b17565b600060209050601f831160018114612c0e5760008415612bfc578287015190505b612c068582612b88565b865550612c6e565b601f198416612c1c866129f8565b60005b82811015612c4457848901518255600182019150602085019450602081019050612c1f565b86831015612c615784890151612c5d601f891682612b6a565b8355505b6001600288020188555050505b505050505050565b6000604082019050612c8b60008301856124d2565b8181036020830152612c9d818461206f565b90509392505050565b7f496e76616c6964206661726d6572204944000000000000000000000000000000600082015250565b6000612cdc601183612023565b9150612ce782612ca6565b602082019050919050565b60006020820190508181036000830152612d0b81612ccf565b9050919050565b600060c082019050612d2760008301896124d2565b612d3460208301886124d2565b8181036040830152612d46818761206f565b9050612d5560608301866124d2565b612d6260808301856124d2565b81810360a0830152612d74818461206f565b9050979650505050505050565b6000606082019050612d9660008301866124d2565b612da3602083018561215f565b8181036040830152612db5818461206f565b9050949350505050565b7f4552433732313a20696e76616c696420746f6b656e2049440000000000000000600082015250565b6000612df5601883612023565b9150612e0082612dbf565b602082019050919050565b60006020820190508181036000830152612e2481612de8565b9050919050565b7f4552433732313a2061646472657373207a65726f206973206e6f74206120766160008201527f6c6964206f776e65720000000000000000000000000000000000000000000000602082015250565b6000612e87602983612023565b9150612e9282612e2b565b604082019050919050565b60006020820190508181036000830152612eb681612e7a565b9050919050565b600081905092915050565b6000612ed382612018565b612edd8185612ebd565b9350612eed818560208601612034565b80840191505092915050565b6000612f058285612ec8565b9150612f118284612ec8565b91508190509392505050565b7f4552433732313a207472616e736665722066726f6d20696e636f72726563742060008201527f6f776e6572000000000000000000000000000000000000000000000000000000602082015250565b6000612f79602583612023565b9150612f8482612f1d565b604082019050919050565b60006020820190508181036000830152612fa881612f6c565b9050919050565b7f4552433732313a207472616e7366657220746f20746865207a65726f2061646460008201527f7265737300000000000000000000000000000000000000000000000000000000602082015250565b600061300b602483612023565b915061301682612faf565b604082019050919050565b6000602082019050818103600083015261303a81612ffe565b9050919050565b7f4552433732313a206d696e7420746f20746865207a65726f2061646472657373600082015250565b6000613077602083612023565b915061308282613041565b602082019050919050565b600060208201905081810360008301526130a68161306a565b9050919050565b7f4552433732313a20746f6b656e20616c7265616479206d696e74656400000000600082015250565b60006130e3601c83612023565b91506130ee826130ad565b602082019050919050565b60006020820190508181036000830152613112816130d6565b9050919050565b7f45524337323155524953746f726167653a2055524920736574206f66206e6f6e60008201527f6578697374656e7420746f6b656e000000000000000000000000000000000000602082015250565b6000613175602e83612023565b915061318082613119565b604082019050919050565b600060208201905081810360008301526131a481613168565b9050919050565b7f4552433732313a20617070726f766520746f2063616c6c657200000000000000600082015250565b60006131e1601983612023565b91506131ec826131ab565b602082019050919050565b60006020820190508181036000830152613210816131d4565b9050919050565b7f4552433732313a207472616e7366657220746f206e6f6e20455243373231526560008201527f63656976657220696d706c656d656e7465720000000000000000000000000000602082015250565b6000613273603283612023565b915061327e82613217565b604082019050919050565b600060208201905081810360008301526132a281613266565b9050919050565b600081519050919050565b600082825260208201905092915050565b60006132d0826132a9565b6132da81856132b4565b93506132ea818560208601612034565b6132f38161205e565b840191505092915050565b6000608082019050613313600083018761215f565b613320602083018661215f565b61332d60408301856124d2565b818103606083015261333f81846132c5565b905095945050505050565b60008151905061335981611f89565b92915050565b60006020828403121561337557613374611f53565b5b60006133838482850161334a565b91505092915050565b7f4e487b7100000000000000000000000000000000000000000000000000000000600052601260045260246000fdfea2646970667358221220bb19faa62faa0045cfee97d6a38288c8b24d3e93b45519773e26905007cd096b64736f6c634300081b0033",
  "linkReferences": {},
  "deployedLinkReferences": {}
}